{
  "transactions": [
    {
      "hash": "0xe413ccf63f9e9b9e6eac40d122b1dff44a789909233d21b362c6687221205b47",
      "transactionType": "CALL",
      "contractName": null,
      "contractAddress": "0xc84c3e85778b3a5ecef69319615988f780a47488",
      "function": "initialize(address,address)",
      "arguments": [
        "0x1204058F5EC282aC273C4Ac6ca854ebe3510ae58",
        "0xa74965d242028Af3d15bb43007e2dBAd75B7b7b8"
      ],
      "transaction": {
        "from": "0x1029b4422b84eae4559d047b824fab6db1189df5",
        "to": "0xc84c3e85778b3a5ecef69319615988f780a47488",
        "gas": "0x18e73",
        "value": "0x0",
        "input": "0x485cc9550000000000000000000000001204058f5ec282ac273c4ac6ca854ebe3510ae58000000000000000000000000a74965d242028af3d15bb43007e2dbad75b7b7b8",
        "nonce": "0xaf",
        "chainId": "0x61"
      },
      "additionalContracts": [],
      "isFixedGasLimit": false
    },
    {
      "hash": "0x93f928e623ee1eba6ba834fcf2238f5ebdc1ea2919d89d9dcc77486036231a87",
      "transactionType": "CALL",
      "contractName": null,
      "contractAddress": "0x1204058f5ec282ac273c4ac6ca854ebe3510ae58",
      "function": "setManager(address)",
      "arguments": [
        "0xa74965d242028Af3d15bb43007e2dBAd75B7b7b8"
      ],
      "transaction": {
        "from": "0x1029b4422b84eae4559d047b824fab6db1189df5",
        "to": "0x1204058f5ec282ac273c4ac6ca854ebe3510ae58",
        "gas": "0x10055",
        "value": "0x0",
        "input": "0xd0ebdbe7000000000000000000000000a74965d242028af3d15bb43007e2dbad75b7b7b8",
        "nonce": "0xb0",
        "chainId": "0x61"
      },
      "additionalContracts": [],
      "isFixedGasLimit": false
    },
    {
      "hash": "0x5a9ecb2f1723898aa10d7d721a18ee582b39097b5e1757d7ae2b7325e97fd9b2",
      "transactionType": "CALL",
      "contractName": null,
      "contractAddress": "0x1204058f5ec282ac273c4ac6ca854ebe3510ae58",
      "function": "setFactory(address)",
      "arguments": [
        "0xB5608BdBceE578AA743Ae421c5CB91c34Ed6B1B4"
      ],
      "transaction": {
        "from": "0x1029b4422b84eae4559d047b824fab6db1189df5",
        "to": "0x1204058f5ec282ac273c4ac6ca854ebe3510ae58",
        "gas": "0x10038",
        "value": "0x0",
        "input": "0x5bb47808000000000000000000000000b5608bdbcee578aa743ae421c5cb91c34ed6b1b4",
        "nonce": "0xb1",
        "chainId": "0x61"
      },
      "additionalContracts": [],
      "isFixedGasLimit": false
    },
    {
      "hash": "0x46d8d418909d78b671b34d0110bbd9af8c43791b5a5a894ed4a49c5e25a29c29",
      "transactionType": "CALL",
      "contractName": null,
      "contractAddress": "0xc84c3e85778b3a5ecef69319615988f780a47488",
      "function": "addVVB(address)",
      "arguments": [
        "0x89AaaDB30Ac49ee1d1895B7423F99FDA459d7316"
      ],
      "transaction": {
        "from": "0x1029b4422b84eae4559d047b824fab6db1189df5",
        "to": "0xc84c3e85778b3a5ecef69319615988f780a47488",
        "gas": "0x11beb",
        "value": "0x0",
        "input": "0xf81ebc3300000000000000000000000089aaadb30ac49ee1d1895b7423f99fda459d7316",
        "nonce": "0xb2",
        "chainId": "0x61"
      },
      "additionalContracts": [],
      "isFixedGasLimit": false
    }
  ],
  "receipts": [
    {
      "status": "0x1",
      "cumulativeGasUsed": "0x35674",
      "logs": [
        {
          "address": "0xc84c3e85778b3a5ecef69319615988f780a47488",
          "topics": [
            "0x5daa87a0e9463431830481fd4b6e3403442dfb9a12b9c07597e9f61d50b633c8"
          ],
          "data": "0x",
          "blockHash": "0x1c89334754aafdd55e1766c13ace68b77539185fb55dd70dcc4bb243f75bf3e7",
          "blockNumber": "0x377225e",
          "transactionHash": "0xe413ccf63f9e9b9e6eac40d122b1dff44a789909233d21b362c6687221205b47",
          "transactionIndex": "0x2",
          "logIndex": "0x2",
          "removed": false
        }
      ],
      "logsBloom": "0x00000000000000000080000000000000000000000000000000000000000000000000000000000000000000000000000000000000000000000000000000000100000000000000000000000000000000000000000000000000002000200000000000000000000000000000000000000000000000000000000000000000000000000000000000000000000000000000000000000000000000000000000000000000000000000000000000000000000000000000000000000000000000000000000000000000000000000000000000040000000000000000000000000000000000000000000000000000000000000000000001000000000000000000000000000000",
      "type": "0x0",
      "transactionHash": "0xe413ccf63f9e9b9e6eac40d122b1dff44a789909233d21b362c6687221205b47",
      "transactionIndex": "0x2",
      "blockHash": "0x1c89334754aafdd55e1766c13ace68b77539185fb55dd70dcc4bb243f75bf3e7",
      "blockNumber": "0x377225e",
      "gasUsed": "0x11072",
      "effectiveGasPrice": "0x59682f00",
      "from": "0x1029b4422b84eae4559d047b824fab6db1189df5",
      "to": "0xc84c3e85778b3a5ecef69319615988f780a47488",
      "contractAddress": null
    },
    {
      "status": "0x1",
      "cumulativeGasUsed": "0xb995",
      "logs": [
        {
          "address": "0x1204058f5ec282ac273c4ac6ca854ebe3510ae58",
          "topics": [
            "0x2c1c11af44aa5608f1dca38c00275c30ea091e02417d36e70e9a1538689c433d",
            "0x000000000000000000000000a74965d242028af3d15bb43007e2dbad75b7b7b8"
          ],
          "data": "0x",
          "blockHash": "0x3590bb1d44b5f7c3684014ddf88eaac91d1debfb2b21c7444459003272b88d58",
          "blockNumber": "0x377225f",
          "transactionHash": "0x93f928e623ee1eba6ba834fcf2238f5ebdc1ea2919d89d9dcc77486036231a87",
          "transactionIndex": "0x0",
          "logIndex": "0x0",
          "removed": false
        }
      ],
      "logsBloom": "0x00000020000000000000000000000000000000000000000000000000000000000008000000000000000000000020000000000000000000000000000000000000000000000000000000010000000000000000000000000000000000000000000000000000000000000000000000000000000000000000020000000000000000000000000000000000000000000000000000000000000000000000000000000000000000000004000000000000000000000000010000000000000000000000000000000000000000000000000000000000000008000000000000000000000000000000000000000000000000000000000000000000000000001000000000000000",
      "type": "0x0",
      "transactionHash": "0x93f928e623ee1eba6ba834fcf2238f5ebdc1ea2919d89d9dcc77486036231a87",
      "transactionIndex": "0x0",
      "blockHash": "0x3590bb1d44b5f7c3684014ddf88eaac91d1debfb2b21c7444459003272b88d58",
      "blockNumber": "0x377225f",
      "gasUsed": "0xb995",
      "effectiveGasPrice": "0x59682f00",
      "from": "0x1029b4422b84eae4559d047b824fab6db1189df5",
      "to": "0x1204058f5ec282ac273c4ac6ca854ebe3510ae58",
      "contractAddress": null
    },
    {
      "status": "0x1",
      "cumulativeGasUsed": "0xb980",
      "logs": [
        {
          "address": "0x1204058f5ec282ac273c4ac6ca854ebe3510ae58",
          "topics": [
            "0x24cd1310c8883cbeaf5b805ab13586ce018b79c022827158ff3e8df14d344936",
            "0x000000000000000000000000b5608bdbcee578aa743ae421c5cb91c34ed6b1b4"
          ],
          "data": "0x",
          "blockHash": "0x0d9a4b35b49f03f6ecdf28f0421e79dc35ed3ac0a406f7d719abf761047e1b62",
          "blockNumber": "0x3772261",
          "transactionHash": "0x5a9ecb2f1723898aa10d7d721a18ee582b39097b5e1757d7ae2b7325e97fd9b2",
          "transactionIndex": "0x0",
          "logIndex": "0x0",
          "removed": false
        }
      ],
      "logsBloom": "0x00000000000000000000000000000000000000000000000000000000000000000008000000000000000000000000000000000000000000000000000000000000000000000000000000000000000000000000000000000000000000000080000000000000000000000000000000000000000000000000000000002000000000000080000000000000000000000000000000000000000000000000000000000000000000000000000000000000000000000000000000000000010000000000000000000000000000000100000000000000000008000000000000000000000000000000000000004000000000000000000000000000000000001000000000000000",
      "type": "0x0",
      "transactionHash": "0x5a9ecb2f1723898aa10d7d721a18ee582b39097b5e1757d7ae2b7325e97fd9b2",
      "transactionIndex": "0x0",
      "blockHash": "0x0d9a4b35b49f03f6ecdf28f0421e79dc35ed3ac0a406f7d719abf761047e1b62",
      "blockNumber": "0x3772261",
      "gasUsed": "0xb980",
      "effectiveGasPrice": "0x59682f00",
      "from": "0x1029b4422b84eae4559d047b824fab6db1189df5",
      "to": "0x1204058f5ec282ac273c4ac6ca854ebe3510ae58",
      "contractAddress": null
    }
  ],
  "libraries": [],
  "pending": [],
  "returns": {},
  "timestamp": 1752435127,
  "chain": 97,
  "commit": "2a8dd47"
}